{"abi":[{"type":"constructor","inputs":[],"stateMutability":"nonpayable"},{"type":"receive","stateMutability":"payable"},{"type":"function","name":"getBalance","inputs":[],"outputs":[{"name":"","type":"uint256","internalType":"uint256"}],"stateMutability":"view"},{"type":"function","name":"owner","inputs":[],"outputs":[{"name":"","type":"address","internalType":"address"}],"stateMutability":"view"},{"type":"function","name":"transfer","inputs":[{"name":"_to","type":"address","internalType":"address payable"},{"name":"_amount","type":"uint256","internalType":"uint256"}],"outputs":[],"stateMutability":"nonpayable"},{"type":"function","name":"withdraw","inputs":[{"name":"_amount","type":"uint256","internalType":"uint256"}],"outputs":[],"stateMutability":"nonpayable"},{"type":"event","name":"Transfer","inputs":[{"name":"to","type":"address","indexed":true,"internalType":"address"},{"name":"amount","type":"uint256","indexed":false,"internalType":"uint256"}],"anonymous":false},{"type":"event","name":"Withdraw","inputs":[{"name":"to","type":"address","indexed":true,"internalType":"address"},{"name":"amount","type":"uint256","indexed":false,"internalType":"uint256"}],"anonymous":false}],"bytecode":{"object":"0x6080604052348015600e575f5ffd5b505f80546001600160a01b0319163317905561039e8061002d5f395ff3fe608060405260043610610041575f3560e01c806312065fe01461004c5780632e1a7d4d1461006b5780638da5cb5b1461008c578063a9059cbb146100c2575f5ffd5b3661004857005b5f5ffd5b348015610057575f5ffd5b506040514781526020015b60405180910390f35b348015610076575f5ffd5b5061008a61008536600461031c565b6100e1565b005b348015610097575f5ffd5b505f546100aa906001600160a01b031681565b6040516001600160a01b039091168152602001610062565b3480156100cd575f5ffd5b5061008a6100dc366004610333565b610201565b5f546001600160a01b0316331461013f5760405162461bcd60e51b815260206004820152601d60248201527f4f6e6c79206f776e65722063616e2077697468647261772066756e647300000060448201526064015b60405180910390fd5b804710156101865760405162461bcd60e51b8152602060048201526014602482015273496e73756666696369656e742062616c616e636560601b6044820152606401610136565b5f80546040516001600160a01b039091169183156108fc02918491818181858888f193505050501580156101bc573d5f5f3e3d5ffd5b505f546040518281526001600160a01b03909116907f884edad9ce6fa2440d8a54cc123490eb96d2768479d49ff9c7366125a94243649060200160405180910390a250565b5f546001600160a01b0316331461025a5760405162461bcd60e51b815260206004820152601d60248201527f4f6e6c79206f776e65722063616e207472616e736665722066756e64730000006044820152606401610136565b804710156102a15760405162461bcd60e51b8152602060048201526014602482015273496e73756666696369656e742062616c616e636560601b6044820152606401610136565b6040516001600160a01b0383169082156108fc029083905f818181858888f193505050501580156102d4573d5f5f3e3d5ffd5b50816001600160a01b03167f69ca02dd4edd7bf0a4abb9ed3b7af3f14778db5d61921c7dc7cd545266326de28260405161031091815260200190565b60405180910390a25050565b5f6020828403121561032c575f5ffd5b5035919050565b5f5f60408385031215610344575f5ffd5b82356001600160a01b038116811461035a575f5ffd5b94602093909301359350505056fea26469706673582212207ece8ec31a194eaf1fa3528a27cfacb71e078d0f2f376fe58f804a411624e0cc64736f6c634300081c0033","linkReferences":{}},"methodIdentifiers":{"getBalance()":"12065fe0","owner()":"8da5cb5b","transfer(address,uint256)":"a9059cbb","withdraw(uint256)":"2e1a7d4d"},"id":23}